{
  "_format": "hh-sol-artifact-1",
  "contractName": "LibraryLog",
  "sourceName": "blockchain/contracts/LibraryLog.sol",
  "abi": [
    {
      "anonymous": false,
      "inputs": [
        {
          "indexed": true,
          "internalType": "uint256",
          "name": "bookId",
          "type": "uint256"
        },
        {
          "indexed": false,
          "internalType": "string",
          "name": "title",
          "type": "string"
        },
        {
          "indexed": false,
          "internalType": "uint256",
          "name": "quantity",
          "type": "uint256"
        }
      ],
      "name": "BookAdded",
      "type": "event"
    },
    {
      "anonymous": false,
      "inputs": [
        {
          "indexed": true,
          "internalType": "uint256",
          "name": "bookId",
          "type": "uint256"
        },
        {
          "indexed": false,
          "internalType": "enum LibraryLog.Action",
          "name": "action",
          "type": "uint8"
        },
        {
          "indexed": false,
          "internalType": "uint256",
          "name": "timestamp",
          "type": "uint256"
        },
        {
          "indexed": false,
          "internalType": "address",
          "name": "user",
          "type": "address"
        }
      ],
      "name": "LogRecorded",
      "type": "event"
    },
    {
      "inputs": [
        {
          "internalType": "uint256",
          "name": "_bookId",
          "type": "uint256"
        },
        {
          "internalType": "string",
          "name": "_title",
          "type": "string"
        },
        {
          "internalType": "uint256",
          "name": "_quantity",
          "type": "uint256"
        }
      ],
      "name": "addBook",
      "outputs": [],
      "stateMutability": "nonpayable",
      "type": "function"
    },
    {
      "inputs": [
        {
          "internalType": "uint256",
          "name": "",
          "type": "uint256"
        }
      ],
      "name": "books",
      "outputs": [
        {
          "internalType": "uint256",
          "name": "id",
          "type": "uint256"
        },
        {
          "internalType": "string",
          "name": "title",
          "type": "string"
        },
        {
          "internalType": "uint256",
          "name": "quantity",
          "type": "uint256"
        },
        {
          "internalType": "bool",
          "name": "exists",
          "type": "bool"
        }
      ],
      "stateMutability": "view",
      "type": "function"
    },
    {
      "inputs": [],
      "name": "getAllLogs",
      "outputs": [
        {
          "components": [
            {
              "internalType": "uint256",
              "name": "bookId",
              "type": "uint256"
            },
            {
              "internalType": "enum LibraryLog.Action",
              "name": "action",
              "type": "uint8"
            },
            {
              "internalType": "uint256",
              "name": "timestamp",
              "type": "uint256"
            },
            {
              "internalType": "address",
              "name": "user",
              "type": "address"
            }
          ],
          "internalType": "struct LibraryLog.BookLog[]",
          "name": "",
          "type": "tuple[]"
        }
      ],
      "stateMutability": "view",
      "type": "function"
    },
    {
      "inputs": [
        {
          "internalType": "uint256",
          "name": "",
          "type": "uint256"
        }
      ],
      "name": "logs",
      "outputs": [
        {
          "internalType": "uint256",
          "name": "bookId",
          "type": "uint256"
        },
        {
          "internalType": "enum LibraryLog.Action",
          "name": "action",
          "type": "uint8"
        },
        {
          "internalType": "uint256",
          "name": "timestamp",
          "type": "uint256"
        },
        {
          "internalType": "address",
          "name": "user",
          "type": "address"
        }
      ],
      "stateMutability": "view",
      "type": "function"
    },
    {
      "inputs": [
        {
          "internalType": "uint256",
          "name": "_bookId",
          "type": "uint256"
        },
        {
          "internalType": "enum LibraryLog.Action",
          "name": "_action",
          "type": "uint8"
        }
      ],
      "name": "recordAction",
      "outputs": [],
      "stateMutability": "nonpayable",
      "type": "function"
    }
  ],
  "bytecode": "0x608060405234801561001057600080fd5b50610982806100206000396000f3fe608060405234801561001057600080fd5b50600436106100575760003560e01c8063687440461461005c578063c192461b14610088578063e30675ea1461009d578063e581329b146100b0578063e79899bd146100c5575b600080fd5b61006f61006a366004610534565b6100e8565b60405161007f9493929190610593565b60405180910390f35b61009b6100963660046105da565b61019c565b005b61009b6100ab36600461069e565b6102a7565b6100b861042a565b60405161007f919061070a565b6100d86100d3366004610534565b6104ee565b60405161007f9493929190610780565b600160208190526000918252604090912080549181018054610109906107b4565b80601f0160208091040260200160405190810160405280929190818152602001828054610135906107b4565b80156101825780601f1061015757610100808354040283529160200191610182565b820191906000526020600020905b81548152906001019060200180831161016557829003601f168201915b50505050600283015460039093015491929160ff16905084565b60008381526001602052604090206003015460ff16156101f95760405162461bcd60e51b8152602060048201526013602482015272426f6f6b20616c72656164792065786973747360681b60448201526064015b60405180910390fd5b604080516080810182528481526020808201858152828401859052600160608401819052600088815292819052939091208251815590519192909190820190610242908261083d565b5060408281015160028301556060909201516003909101805460ff19169115159190911790555183907fd4568aa4f169f5f39691140d56cd40c5a4f026868daa707efc62a9897431ba459061029a90859085906108fd565b60405180910390a2505050565b60008281526001602052604090206003015460ff166102fe5760405162461bcd60e51b8152602060048201526013602482015272109bdbdac8191bd95cc81b9bdd08195e1a5cdd606a1b60448201526064016101f0565b60006040518060800160405280848152602001836001811115610323576103236106d2565b815242602080830191909152336040909201919091526000805460018181018355918052835160049091027f290decd9548b62a8d60345a988386fc84ba6bc95484008f6362f93160ef3e5638101918255928401517f290decd9548b62a8d60345a988386fc84ba6bc95484008f6362f93160ef3e56490930180549495508594919392909160ff19169083818111156103be576103be6106d2565b02179055506040828101516002830155606090920151600390910180546001600160a01b0319166001600160a01b039092169190911790555183907fe08ea81a407e3da2f7f86306dfa7c4799625381e981191c80da2043450cbc36f9061029a9085904290339061091f565b60606000805480602002602001604051908101604052809291908181526020016000905b828210156104e55783829060005260206000209060040201604051806080016040529081600082015481526020016001820160009054906101000a900460ff16600181111561049f5761049f6106d2565b60018111156104b0576104b06106d2565b815260028201546020808301919091526003909201546001600160a01b0316604090910152908252600192909201910161044e565b50505050905090565b600081815481106104fe57600080fd5b6000918252602090912060049091020180546001820154600283015460039093015491935060ff1691906001600160a01b031684565b60006020828403121561054657600080fd5b5035919050565b6000815180845260005b8181101561057357602081850181015186830182015201610557565b506000602082860101526020601f19601f83011685010191505092915050565b8481526080602082015260006105ac608083018661054d565b60408301949094525090151560609091015292915050565b634e487b7160e01b600052604160045260246000fd5b6000806000606084860312156105ef57600080fd5b83359250602084013567ffffffffffffffff8082111561060e57600080fd5b818601915086601f83011261062257600080fd5b813581811115610634576106346105c4565b604051601f8201601f19908116603f0116810190838211818310171561065c5761065c6105c4565b8160405282815289602084870101111561067557600080fd5b826020860160208301376000602084830101528096505050505050604084013590509250925092565b600080604083850312156106b157600080fd5b823591506020830135600281106106c757600080fd5b809150509250929050565b634e487b7160e01b600052602160045260246000fd5b6002811061070657634e487b7160e01b600052602160045260246000fd5b9052565b602080825282518282018190526000919060409081850190868401855b828110156107735781518051855286810151610745888701826106e8565b5080860151858701526060908101516001600160a01b03169085015260809093019290850190600101610727565b5091979650505050505050565b8481526080810161079460208301866106e8565b60408201939093526001600160a01b039190911660609091015292915050565b600181811c908216806107c857607f821691505b6020821081036107e857634e487b7160e01b600052602260045260246000fd5b50919050565b601f82111561083857600081815260208120601f850160051c810160208610156108155750805b601f850160051c820191505b8181101561083457828155600101610821565b5050505b505050565b815167ffffffffffffffff811115610857576108576105c4565b61086b8161086584546107b4565b846107ee565b602080601f8311600181146108a057600084156108885750858301515b600019600386901b1c1916600185901b178555610834565b600085815260208120601f198616915b828110156108cf578886015182559484019460019091019084016108b0565b50858210156108ed5787850151600019600388901b60f8161c191681555b5050505050600190811b01905550565b604081526000610910604083018561054d565b90508260208301529392505050565b6060810161092d82866106e8565b60208201939093526001600160a01b039190911660409091015291905056fea26469706673582212209f7aa54e627f472b48b14ac4f4d1b07ad9ecbe540175f0cbe891d8669eefabdc64736f6c63430008130033",
  "linkReferences": {},
  "deployedLinkReferences": {}
}