{
  "_format": "hh-sol-artifact-1",
  "contractName": "LibraryManagement",
  "sourceName": "blockchain/contracts/LibraryManagement.sol",
  "abi": [
    {
      "anonymous": false,
      "inputs": [
        {
          "indexed": true,
          "internalType": "uint256",
          "name": "id",
          "type": "uint256"
        },
        {
          "indexed": false,
          "internalType": "string",
          "name": "title",
          "type": "string"
        },
        {
          "indexed": false,
          "internalType": "uint256",
          "name": "quantity",
          "type": "uint256"
        }
      ],
      "name": "BookAdded",
      "type": "event"
    },
    {
      "anonymous": false,
      "inputs": [
        {
          "indexed": true,
          "internalType": "address",
          "name": "borrower",
          "type": "address"
        },
        {
          "indexed": true,
          "internalType": "uint256",
          "name": "bookId",
          "type": "uint256"
        }
      ],
      "name": "BookBorrowed",
      "type": "event"
    },
    {
      "anonymous": false,
      "inputs": [
        {
          "indexed": true,
          "internalType": "address",
          "name": "borrower",
          "type": "address"
        },
        {
          "indexed": true,
          "internalType": "uint256",
          "name": "bookId",
          "type": "uint256"
        }
      ],
      "name": "BookReturned",
      "type": "event"
    },
    {
      "anonymous": false,
      "inputs": [
        {
          "indexed": true,
          "internalType": "address",
          "name": "previousOwner",
          "type": "address"
        },
        {
          "indexed": true,
          "internalType": "address",
          "name": "newOwner",
          "type": "address"
        }
      ],
      "name": "OwnershipTransferred",
      "type": "event"
    },
    {
      "inputs": [
        {
          "internalType": "uint256",
          "name": "_id",
          "type": "uint256"
        },
        {
          "internalType": "string",
          "name": "_title",
          "type": "string"
        },
        {
          "internalType": "uint256",
          "name": "_quantity",
          "type": "uint256"
        }
      ],
      "name": "addBook",
      "outputs": [],
      "stateMutability": "nonpayable",
      "type": "function"
    },
    {
      "inputs": [
        {
          "internalType": "uint256",
          "name": "",
          "type": "uint256"
        }
      ],
      "name": "books",
      "outputs": [
        {
          "internalType": "uint256",
          "name": "id",
          "type": "uint256"
        },
        {
          "internalType": "string",
          "name": "title",
          "type": "string"
        },
        {
          "internalType": "uint256",
          "name": "quantity",
          "type": "uint256"
        },
        {
          "internalType": "bool",
          "name": "exists",
          "type": "bool"
        }
      ],
      "stateMutability": "view",
      "type": "function"
    },
    {
      "inputs": [
        {
          "internalType": "uint256",
          "name": "_bookId",
          "type": "uint256"
        }
      ],
      "name": "borrowBook",
      "outputs": [],
      "stateMutability": "nonpayable",
      "type": "function"
    },
    {
      "inputs": [
        {
          "internalType": "address",
          "name": "",
          "type": "address"
        },
        {
          "internalType": "uint256",
          "name": "",
          "type": "uint256"
        }
      ],
      "name": "borrowedBooks",
      "outputs": [
        {
          "internalType": "bool",
          "name": "",
          "type": "bool"
        }
      ],
      "stateMutability": "view",
      "type": "function"
    },
    {
      "inputs": [],
      "name": "owner",
      "outputs": [
        {
          "internalType": "address",
          "name": "",
          "type": "address"
        }
      ],
      "stateMutability": "view",
      "type": "function"
    },
    {
      "inputs": [],
      "name": "renounceOwnership",
      "outputs": [],
      "stateMutability": "nonpayable",
      "type": "function"
    },
    {
      "inputs": [
        {
          "internalType": "uint256",
          "name": "_bookId",
          "type": "uint256"
        }
      ],
      "name": "returnBook",
      "outputs": [],
      "stateMutability": "nonpayable",
      "type": "function"
    },
    {
      "inputs": [
        {
          "internalType": "address",
          "name": "newOwner",
          "type": "address"
        }
      ],
      "name": "transferOwnership",
      "outputs": [],
      "stateMutability": "nonpayable",
      "type": "function"
    }
  ],
  "bytecode": "0x608060405234801561001057600080fd5b5061001a3361001f565b61006f565b600080546001600160a01b038381166001600160a01b0319831681178455604051919092169283917f8be0079c531659141344cd1fd0a4f28419497f9722a3daafe3b4186f6b6457e09190a35050565b610a7f8061007e6000396000f3fe608060405234801561001057600080fd5b50600436106100885760003560e01c8063a799bb551161005b578063a799bb55146100f1578063c192461b1461012f578063ca5140c914610142578063f2fde38b1461015557600080fd5b8063687440461461008d578063715018a6146100b95780637e490a9e146100c35780638da5cb5b146100d6575b600080fd5b6100a061009b3660046106c6565b610168565b6040516100b09493929190610725565b60405180910390f35b6100c161021c565b005b6100c16100d13660046106c6565b610230565b6000546040516001600160a01b0390911681526020016100b0565b61011f6100ff366004610772565b600260209081526000928352604080842090915290825290205460ff1681565b60405190151581526020016100b0565b6100c161013d3660046107b2565b6103bc565b6100c16101503660046106c6565b6104ca565b6100c1610163366004610876565b6105a3565b60016020819052600091825260409091208054918101805461018990610898565b80601f01602080910402602001604051908101604052809291908181526020018280546101b590610898565b80156102025780601f106101d757610100808354040283529160200191610202565b820191906000526020600020905b8154815290600101906020018083116101e557829003601f168201915b50505050600283015460039093015491929160ff16905084565b61022461061c565b61022e6000610676565b565b60008181526001602052604090206003015460ff1661028c5760405162461bcd60e51b8152602060048201526013602482015272109bdbdac8191bd95cc81b9bdd08195e1a5cdd606a1b60448201526064015b60405180910390fd5b6000818152600160205260409020600201546102df5760405162461bcd60e51b8152602060048201526012602482015271426f6f6b206e6f7420617661696c61626c6560701b6044820152606401610283565b33600090815260026020908152604080832084845290915290205460ff161561034a5760405162461bcd60e51b815260206004820152601e60248201527f596f7520616c726561647920626f72726f776564207468697320626f6f6b00006044820152606401610283565b6000818152600160205260408120600201805491610367836108e8565b9091555050336000818152600260209081526040808320858452909152808220805460ff19166001179055518392917f84edab31b887a66b8af059a2b9c3c53e440d8b54f65102ae6acc11bf485db9e291a350565b6103c461061c565b60008381526001602052604090206003015460ff161561041c5760405162461bcd60e51b8152602060048201526013602482015272426f6f6b20616c72656164792065786973747360681b6044820152606401610283565b604080516080810182528481526020808201858152828401859052600160608401819052600088815292819052939091208251815590519192909190820190610465908261094e565b5060408281015160028301556060909201516003909101805460ff19169115159190911790555183907fd4568aa4f169f5f39691140d56cd40c5a4f026868daa707efc62a9897431ba45906104bd9085908590610a0e565b60405180910390a2505050565b33600090815260026020908152604080832084845290915290205460ff166105345760405162461bcd60e51b815260206004820152601f60248201527f596f752068617665206e6f7420626f72726f776564207468697320626f6f6b006044820152606401610283565b600081815260016020526040812060020180549161055183610a30565b9091555050336000818152600260209081526040808320858452909152808220805460ff19169055518392917f095bd1d20746d0513acf2a85fa1f8ed7de89ff83285974a106ca40499e16c9c891a350565b6105ab61061c565b6001600160a01b0381166106105760405162461bcd60e51b815260206004820152602660248201527f4f776e61626c653a206e6577206f776e657220697320746865207a65726f206160448201526564647265737360d01b6064820152608401610283565b61061981610676565b50565b6000546001600160a01b0316331461022e5760405162461bcd60e51b815260206004820181905260248201527f4f776e61626c653a2063616c6c6572206973206e6f7420746865206f776e65726044820152606401610283565b600080546001600160a01b038381166001600160a01b0319831681178455604051919092169283917f8be0079c531659141344cd1fd0a4f28419497f9722a3daafe3b4186f6b6457e09190a35050565b6000602082840312156106d857600080fd5b5035919050565b6000815180845260005b81811015610705576020818501810151868301820152016106e9565b506000602082860101526020601f19601f83011685010191505092915050565b84815260806020820152600061073e60808301866106df565b60408301949094525090151560609091015292915050565b80356001600160a01b038116811461076d57600080fd5b919050565b6000806040838503121561078557600080fd5b61078e83610756565b946020939093013593505050565b634e487b7160e01b600052604160045260246000fd5b6000806000606084860312156107c757600080fd5b83359250602084013567ffffffffffffffff808211156107e657600080fd5b818601915086601f8301126107fa57600080fd5b81358181111561080c5761080c61079c565b604051601f8201601f19908116603f011681019083821181831017156108345761083461079c565b8160405282815289602084870101111561084d57600080fd5b826020860160208301376000602084830101528096505050505050604084013590509250925092565b60006020828403121561088857600080fd5b61089182610756565b9392505050565b600181811c908216806108ac57607f821691505b6020821081036108cc57634e487b7160e01b600052602260045260246000fd5b50919050565b634e487b7160e01b600052601160045260246000fd5b6000816108f7576108f76108d2565b506000190190565b601f82111561094957600081815260208120601f850160051c810160208610156109265750805b601f850160051c820191505b8181101561094557828155600101610932565b5050505b505050565b815167ffffffffffffffff8111156109685761096861079c565b61097c816109768454610898565b846108ff565b602080601f8311600181146109b157600084156109995750858301515b600019600386901b1c1916600185901b178555610945565b600085815260208120601f198616915b828110156109e0578886015182559484019460019091019084016109c1565b50858210156109fe5787850151600019600388901b60f8161c191681555b5050505050600190811b01905550565b604081526000610a2160408301856106df565b90508260208301529392505050565b600060018201610a4257610a426108d2565b506001019056fea26469706673582212200eb536c06e00c8acf48af674ce12a9c930d7b9d4b9bb014939aed0500c28599964736f6c63430008130033",
  "linkReferences": {},
  "deployedLinkReferences": {}
}