{
  "_format": "hh-sol-artifact-1",
  "contractName": "LibraryLog",
  "sourceName": "blockchain/contracts/LibraryLog.sol",
  "abi": [
    {
      "anonymous": false,
      "inputs": [
        {
          "indexed": true,
          "internalType": "uint256",
          "name": "bookId",
          "type": "uint256"
        },
        {
          "indexed": false,
          "internalType": "enum LibraryLog.Action",
          "name": "action",
          "type": "uint8"
        },
        {
          "indexed": false,
          "internalType": "uint256",
          "name": "timestamp",
          "type": "uint256"
        },
        {
          "indexed": false,
          "internalType": "address",
          "name": "user",
          "type": "address"
        }
      ],
      "name": "LogRecorded",
      "type": "event"
    },
    {
      "inputs": [],
      "name": "getAllLogs",
      "outputs": [
        {
          "components": [
            {
              "internalType": "uint256",
              "name": "bookId",
              "type": "uint256"
            },
            {
              "internalType": "enum LibraryLog.Action",
              "name": "action",
              "type": "uint8"
            },
            {
              "internalType": "uint256",
              "name": "timestamp",
              "type": "uint256"
            },
            {
              "internalType": "address",
              "name": "user",
              "type": "address"
            }
          ],
          "internalType": "struct LibraryLog.BookLog[]",
          "name": "",
          "type": "tuple[]"
        }
      ],
      "stateMutability": "view",
      "type": "function"
    },
    {
      "inputs": [
        {
          "internalType": "uint256",
          "name": "",
          "type": "uint256"
        }
      ],
      "name": "logs",
      "outputs": [
        {
          "internalType": "uint256",
          "name": "bookId",
          "type": "uint256"
        },
        {
          "internalType": "enum LibraryLog.Action",
          "name": "action",
          "type": "uint8"
        },
        {
          "internalType": "uint256",
          "name": "timestamp",
          "type": "uint256"
        },
        {
          "internalType": "address",
          "name": "user",
          "type": "address"
        }
      ],
      "stateMutability": "view",
      "type": "function"
    },
    {
      "inputs": [
        {
          "internalType": "uint256",
          "name": "_bookId",
          "type": "uint256"
        },
        {
          "internalType": "enum LibraryLog.Action",
          "name": "_action",
          "type": "uint8"
        }
      ],
      "name": "recordAction",
      "outputs": [],
      "stateMutability": "nonpayable",
      "type": "function"
    }
  ],
  "bytecode": "0x608060405234801561001057600080fd5b50610471806100206000396000f3fe608060405234801561001057600080fd5b50600436106100415760003560e01c8063e30675ea14610046578063e581329b1461005b578063e79899bd14610079575b600080fd5b6100596100543660046102df565b61009c565b005b6100636101d5565b604051610070919061034b565b60405180910390f35b61008c6100873660046103c1565b610299565b60405161007094939291906103da565b600060405180608001604052808481526020018360018111156100c1576100c1610313565b815242602080830191909152336040909201919091526000805460018181018355918052835160049091027f290decd9548b62a8d60345a988386fc84ba6bc95484008f6362f93160ef3e5638101918255928401517f290decd9548b62a8d60345a988386fc84ba6bc95484008f6362f93160ef3e56490930180549495508594919392909160ff191690838181111561015c5761015c610313565b02179055506040828101516002830155606090920151600390910180546001600160a01b0319166001600160a01b039092169190911790555183907fe08ea81a407e3da2f7f86306dfa7c4799625381e981191c80da2043450cbc36f906101c89085904290339061040e565b60405180910390a2505050565b60606000805480602002602001604051908101604052809291908181526020016000905b828210156102905783829060005260206000209060040201604051806080016040529081600082015481526020016001820160009054906101000a900460ff16600181111561024a5761024a610313565b600181111561025b5761025b610313565b815260028201546020808301919091526003909201546001600160a01b031660409091015290825260019290920191016101f9565b50505050905090565b600081815481106102a957600080fd5b6000918252602090912060049091020180546001820154600283015460039093015491935060ff1691906001600160a01b031684565b600080604083850312156102f257600080fd5b8235915060208301356002811061030857600080fd5b809150509250929050565b634e487b7160e01b600052602160045260246000fd5b6002811061034757634e487b7160e01b600052602160045260246000fd5b9052565b602080825282518282018190526000919060409081850190868401855b828110156103b4578151805185528681015161038688870182610329565b5080860151858701526060908101516001600160a01b03169085015260809093019290850190600101610368565b5091979650505050505050565b6000602082840312156103d357600080fd5b5035919050565b848152608081016103ee6020830186610329565b60408201939093526001600160a01b039190911660609091015292915050565b6060810161041c8286610329565b60208201939093526001600160a01b039190911660409091015291905056fea26469706673582212200d1d18772f791c8f8f2fcf055d2b44a81d703bcaa2057dbb32426ef2b00d5c2c64736f6c63430008130033",
  "linkReferences": {},
  "deployedLinkReferences": {}
}